:1000000002C1000030C100002EC100002CC1000060
:100010002AC1000028C1000026C1000024C1000040
:1000200022C1000020C100001EC100001CC1000050
:100030001AC1000018C1000016C1000014C1000060
:1000400012C1000010C100000EC100000CC1000070
:100050000AC1000008C1000006C1000005C7000079
:1000600002C1000074C7000049C70000FCC00000C6
:10007000FAC00000F8C00000F6C00000F4C00000A4
:10008000F2C00000F0C00000EEC00000ECC00000B4
:10009000EAC00000E8C00000E6C00000E4C00000C4
:1000A000E2C00000E0C00000DEC00000DCC00000D4
:1000B000DAC00000D8C00000D6C00000D4C00000E4
:1000C000D2C00000D0C00000CEC00000CCC00000F4
:1000D000CAC00000C8C00000C6C00000C4C0000004
:1000E000C2C00000000020002300260029002C00D0
:1000F0002F00320000010000030106010901000089
:100100002100240027002A002D00300033000101C7
:100110000000040107010A01000022002500280058
:100120002B002E00310034000201000005010801FF
:100130000B0105050505070508080808020202026B
:100140000A0A080804040404010101010101010173
:100150000303030303030303040707070C0C0C0C3E
:100160000C0C0C0C02020202060606060606060627
:100170000B0B0B0B0B0B0B0B0102102020080810B4
:100180002040102040800201020108040201010207
:1001900004081020408080402010080402018004E0
:1001A000020180402010080402010804020101023B
:1001B0000408102040800102040810204080000044
:1001C0000A0B02090C0D0E080703040100000000D1
:1001D000000000000000000000000000000000001F
:1001E00000000000000000000000121110000000DC
:1001F00000000000000000000000000000000000FF
:1002000000000000DD0711241FBECFEFD1E2DEBFEA
:10021000CDBF00E00CBF12E0A0E0B2E0EAE1F4E103
:1002200000E00BBF02C007900D92AE34B107D9F7C2
:1002300023E0AEE4B2E001C01D92A930B207E1F7BD
:1002400011E0C3E0D1E000E006C021970109802F52
:10025000FE010E94030AC230D10780E00807A9F717
:10026000E3D60C940B0ACCCE8CBD9DBD0895815075
:10027000823108F05AC0E82FF0E08827ED5BFE4F8E
:100280008F4F0C94030A6301670155015B015F0105
:1002900095016A01700174017A017E018201880171
:1002A0008C019501900196019A01809180008F77D1
:1002B000809380000895809180008F7DF9CF809198
:1002C0008000877FF5CF84B58F7784BD089584B58E
:1002D0008F7DFBCF8091B0008F778093B000089521
:1002E0008091B0008F7DF9CF809190008F778093BF
:1002F00090000895809190008F7DF9CF80919000BB
:10030000877FF5CF8091A0008F778093A00008951C
:100310008091A0008F7DF9CF8091A000877FF5CFDD
:10032000809120018F778093200108958091200192
:100330008F7DF9CF80912001877FF5CF1F93CF93D9
:10034000DF93282F30E0F901E254FE4F8491F90148
:10035000E858FE4FD491F901EE5CFE4FC491CC23D6
:10036000A1F0162F811183DFEC2FF0E0EE0FFF1FBD
:10037000E85EFE4FA591B4918FB7F894EC911111FE
:1003800008C0D095DE23DC938FBFDF91CF911F9102
:100390000895DE2BF8CFCF93DF9390E0FC01E8586F
:1003A000FE4F24918E5C9E4FFC0184918823D1F0F6
:1003B00090E0880F991FFC01E250FF4FA591B49186
:1003C000FC01E85EFE4FC591D49161110EC09FB74C
:1003D000F8948C91E22FE0958E238C932881E22370
:1003E000E8839FBFDF91CF9108958FB7F894EC9188
:1003F000E22BEC938FBFF6CF3FB7F8948091580271
:1004000090915902A0915A02B0915B0226B5A89B27
:1004100005C02F3F19F00196A11DB11D3FBFBA2F96
:10042000A92F982F8827BC01CD01620F711D811D56
:10043000911D42E0660F771F881F991F4A95D1F7DB
:1004400008958F929F92AF92BF92CF92DF92EF92D8
:10045000FF92D2DF4B015C0182E3C82ED12CE12C4C
:10046000F12CCADF681979098A099B09683E734033
:1004700081059105B0F321E0C21AD108E108F10825
:1004800088EE880E83E0981EA11CB11CC114D10413
:10049000E104F10431F7FF90EF90DF90CF90BF902F
:1004A000AF909F908F900895AF92BF92CF92DF92BE
:1004B000EF92FF920F931F93CF93DF936C017B0119
:1004C0008B01040F151FEB015E01AE18BF08C017AA
:1004D000D10759F06991D601ED91FC910190F0811D
:1004E000E02DC6011995892B79F7C501DF91CF91D0
:1004F0001F910F91FF90EF90DF90CF90BF90AF9042
:100500000895FC01538D448D252F30E0842F90E019
:10051000821B930B541710F0CF96089501970895FE
:10052000FC01918D828D981761F0A28DAE0FBF2FC7
:10053000B11D5D968C91928D9F5F9F73928F90E01D
:1005400008958FEF9FEF0895FC01918D828D98178C
:1005500031F0828DE80FF11D858D90E008958FEFC9
:100560009FEF0895FC01918D228D892F90E0805C92
:100570009F4F821B91098F73992708958CE592E014
:10058000F1DF21E0892B09F420E0822F0895FC019E
:10059000A48DA80FB92FB11DA35ABF4F2C91848DE4
:1005A00090E001968F739927848FA689B7892C9341
:1005B000A089B1898C91837080648C93938D848D94
:1005C000981306C00288F389E02D80818F7D808397
:1005D0000895EF92FF920F931F93CF93DF93EC0157
:1005E00081E0888F9B8D8C8D98131AC0E889F989DA
:1005F000808185FF15C09FB7F894EE89FF896083DD
:10060000E889F98980818370806480839FBF81E05D
:1006100090E0DF91CF911F910F91FF90EF9008959F
:10062000F62E0B8D10E00F5F1F4F0F731127E02E7A
:100630008C8D8E110BC00FB607FCFACFE889F989B3
:10064000808185FFF5CFCE01A2DFF2CFEB8DEC0FDD
:10065000FD2FF11DE35AFF4FF0829FB7F8940B8FE7
:10066000EA89FB8980818062D0CFCF93DF93EC0150
:10067000888D8823B1F0AA89BB89E889F9898C9192
:1006800085FD03C0808186FD0CC00FB607FCF7CF47
:100690008C9185FFF2CF808185FFEDCFCE0177DF92
:1006A000EACFDF91CF91089580E090E0892B21F08F
:1006B00065DF81110E94000080E090E0892B49F005
:1006C00080E090E0892B29F00E94000081110E94B7
:1006D000000080E090E0892B49F080E090E0892BD9
:1006E00029F00E94000081110E94000080E090E04B
:1006F000892B49F080E090E0892B29F00E940000CE
:1007000081110C9400000895BC016E5F7F4FDC01E5
:10071000ED91FC910190F081E02D40E0199591E080
:10072000811190E0892F089508958EBD00000DB4C9
:1007300007FEFDCF8EB50895DF92EF92FF920F93E3
:100740001F93CF93DF937C01062FD42E152F83E5C3
:1007500090E08ADD60E0F7018685F0DD82E1E5DF8B
:10076000CD2DD12F0C0F1D2F111DC017D10719F042
:100770008991DBDFFACF61E0F7018685DF91CF91C8
:100780001F910F91FF90EF90DF90D8CD1F93CF93E3
:10079000DF93EC01162F83E590E066DD60E08E8547
:1007A000CDDD812F8068C1DF80E0BFDF182F61E0E1
:1007B0008E85C4DD812FDF91CF911F9108950F9316
:1007C0001F93CF93DF93EC01062F142F83E590E066
:1007D0004BDD60E08E85B2DD802FA7DF812FA5DFA6
:1007E00061E08E85DF91CF911F910F91A7CDCF92C0
:1007F000DF92EF92FF920F931F93CF93DF93EC0161
:100800006B01142F790140E062E0D9DF44E06AE037
:10081000CE01D5DF40E864E1CE01D1DFA601612F32
:10082000CE018ADF43E062E0CE01C9DF08E813E1D0
:100830006AE0CE01ABDF82FF18C040E062E0CE018B
:10084000BEDF64E4CE01A2DFF701808362E4CE0163
:100850009DDFF701818380E0DF91CF911F910F91A0
:10086000FF90EF90DF90CF9008950150110901F7AC
:1008700083E0F2CF3F924F925F926F927F928F927E
:100880009F92AF92BF92CF92DF92EF92FF920F931F
:100890001F93CF93DF931F921F92CDB7DEB74C010A
:1008A0002B01D42E390180E0E114F10411F0F7019D
:1008B0008081BC2CB29490EFB922B80E40E062E087
:1008C000C4017DDF4FE768E0C40179DF40E864E1FF
:1008D000C40175DFA2016D2DC4012EDF4B2D6AE12D
:1008E000C4016DDF4CE062E0C40169DF6AE1C4016C
:1008F0004DDF482F40686AE1C40161DF20ED422EE0
:1009000027E0522E68E0C40141DF982F907309F070
:10091000ACC080FD04C0F1E04F1A510899F783E0A4
:100920008AC06114710409F464C00115110509F449
:1009300060C064E1C4012ADFB82EF80180818B1504
:1009400008F48DC0B082BB20A9F183E590E08CDC77
:1009500060E0F4018685F2DCBA9482E9E6DECC2020
:10096000A9F08FEF90E09C0102C0220F331FCA94C0
:10097000E2F7690182E9D9DE9C2D9095F30120818F
:1009800092238C21982B9083CC24C39423014C0C6C
:10099000511CCB1438F482E9C8DEF20181932F0197
:1009A000C394F7CF80E0C1DEF201808361E0F401FF
:1009B0008685C4DC68E1C401E9DE8770E114F104D6
:1009C00011F0F701808333FC4CC06114710409F409
:1009D0004AC00115110509F446C0AA2009F443C014
:1009E000F8014081413039F4843009F047C08FEF7D
:1009F00022C080E0E8CF423008F440C081113EC000
:100A000042509E012F5F3F4FB301C401F0DE8111C0
:100A100012C0F8019081690E711CF3013297208198
:100A2000998129132BC0F1E06F1A7108F30120811D
:100A30009A81291323C00F900F90DF91CF911F91BE
:100A40000F91FF90EF90DF90CF90BF90AF909F906D
:100A50008F907F906F905F904F903F90089584E0CB
:100A6000EACF82E0E8CF80E0E6CF6CE0C4018EDE22
:100A7000382E837109F455CF81E0DDCF87E0DBCFDD
:100A80008F929F92AF92CF92EF92FF920F931F930C
:100A9000CF93DF9300D01F921F92CDB7DEB74C01EA
:100AA00082E08D8340E064E2C40189DE40E066E2DA
:100AB000C40185DE46E268E4C40181DE86E28B8300
:100AC0008D818230C0F16CE1C40160DE482F4F7728
:100AD0006CE1C40174DE87E08C83A12CC12CCE01B3
:100AE00004967C018E010B5F1F4F9E012F5F3F4FCD
:100AF00041E0BE016D5F7F4FC401BCDE982F8111C4
:100B000017C08D818230B9F48C81811114C081E0CD
:100B10000F900F900F900F900F90DF91CF911F913A
:100B20000F91FF90EF90CF90AF909F908F9008958E
:100B300081E0923069F380E0EBCF2F923F924F92A9
:100B40005F926F927F928F929F92AF92BF92CF925D
:100B5000DF92EF92FF920F931F93CF93DF93CDB766
:100B6000DEB72D970FB6F894DEBF0FBECDBF16E0EF
:100B7000413508F043C1342E3B014C016CE106DEE7
:100B8000482F4F776CE1C4011ADE83E98983332053
:100B900029F081E0F3019081953008F480E022246F
:100BA0002394B12C9B2D990F990F990FD32CD91AFF
:100BB000D7FCD12C32E0882319F098E89B8333E0EE
:100BC00021E09D2D977009F420E09D2D9595959538
:100BD0009595290FC9F094E0811193E0291708F445
:100BE000922FEB2DF0E03196E60DF71D232F41916A
:100BF000A1E0B0E0AC0FBD1FA20FB11D4C932F5F61
:100C0000422F431B491798F3882311F0F8E0DF0EB9
:100C10008FE18D150CF07EC090E79A838B819C81CB
:100C200089279D8189279E8189278F839E01285F3F
:100C30003F4F47E0BE016F5F7F4FC401D8DD182FE3
:100C40008111DCC01A86E3E0EB87DC86CE010796D3
:100C50002C0199E09D87CA844C2D4295407F4C0D14
:100C60006AE1C401ACDDA12CCE010A967C018E01A3
:100C7000055F1F4F92014D85BE016F5F7F4FC4011D
:100C8000F9DD182F823009F064C06CE1C4017EDD0B
:100C900085FDB4C08F7109F480E2282F30E04D2D1E
:100CA000DD0C550B421753070CF09CC0D82EE82FD3
:100CB000E595E595E595EF5F982F977081E009F44C
:100CC00080E0E80F81E090E08C0F9D1F8E0F911D5A
:100CD000FC01215031092770332781E090E002C0E8
:100CE000880F991F2A95E2F79C018081822B8083CF
:100CF0008FCF85E98983332031F081E0F301908142
:100D0000983008F04FCF80E04DCF87E9898326E007
:100D1000B22EF9CF9D2D97709A878D2D859585954B
:100D200085958E5F282F2295207F290F2A8321E029
:100D3000911101C020E0280F2D8744244394512CA9
:100D40004C0E5D1E480E511CE9E0E81BEB87DC866B
:100D500082CF811153C080E2D82E9C8590320CF452
:100D60005BCF8B81883809F03FC083E093E0EB2DA7
:100D7000F0E03196E60DF71D980FA1E0B0E0AC0F62
:100D8000BD1FA80FB11D2C9121938F5F8913F5CF43
:100D9000BB84E3E0BE124CC08A85811149C09E012C
:100DA0002D5F3F4F41E0B201C40121DD182F8111B9
:100DB00025C09B81F201818198133CC09C81828176
:100DC000981338C0808182FF12C02394F2E02F165E
:100DD00009F48FCF83E0281609F497CF91E0291604
:100DE00009F4D3CE15E00AC082E094E0C0CFF3014D
:100DF0008387822D880F820D8F5F8083812F2D96B0
:100E00000FB6F894DEBF0FBECDBFDF91CF911F911B
:100E10000F91FF90EF90DF90CF90BF90AF909F9099
:100E20008F907F906F905F904F903F902F9008959C
:100E300011E0E4CF17E0E2CFFC0101900020E9F7D8
:100E40003197AF01481B590BBC018CE592E02CCBCC
:100E5000CF93DF93F1DFEC018CE192E0EDDF8C0FBB
:100E60009D1FDF91CF9108951F920F920FB60F92A1
:100E700011242F933F938F939F93AF93BF938091B0
:100E8000540290915502A0915602B09157023091B0
:100E9000530223E0230F2D3758F50196A11DB11DF4
:100EA000209353028093540290935502A0935602CC
:100EB000B09357028091580290915902A0915A0222
:100EC000B0915B020196A11DB11D809358029093D1
:100ED0005902A0935A02B0935B02BF91AF919F91C8
:100EE0008F913F912F910F900FBE0F901F901895EB
:100EF00026E8230F0296A11DB11DD2CF1F920F929B
:100F00000FB60F9211240BB60F922F933F934F936E
:100F10005F936F937F938F939F93AF93BF93EF9361
:100F2000FF938CE592E033DBFF91EF91BF91AF919E
:100F30009F918F917F916F915F914F913F912F91F1
:100F40000F900BBE0F900FBE0F901F9018951F9221
:100F50000F920FB60F9211240BB60F922F938F930F
:100F60009F93EF93FF93E0916C02F0916D0280816B
:100F7000E0917202F091730282FD1DC09081809118
:100F800075028F5F8F7320917602821741F0E09196
:100F90007502F0E0E45AFD4F958F80937502FF9142
:100FA000EF919F918F912F910F900BBE0F900FBEDD
:100FB0000F901F9018958081F2CFECE5F2E013823C
:100FC000128288EE93E0A0E0B0E084839583A6834C
:100FD000B78384E092E09183808385EC90E09587ED
:100FE000848784EC90E09787868780EC90E0918BF3
:100FF000808B81EC90E0938B828B82EC90E0958BE0
:10100000848B86EC90E0978B868B118E128E138EDC
:10101000148EE9EFF2E086E192E0918380838AE02A
:10102000868789E087870895CF93DF93CDB7DEB7B2
:10103000A1970FB6F894DEBF0FBECDBF789484B5EC
:10104000826084BD84B5816084BD85B5826085BDC4
:1010500085B5816085BD80916E00816080936E0052
:101060001092810080918100826080938100809144
:1010700081008160809381008091800081608093F5
:1010800080008091B10084608093B1008091B000B5
:1010900081608093B0008091910082608093910084
:1010A0008091910081608093910080919000816097
:1010B000809390008091A10082608093A100809134
:1010C000A10081608093A1008091A0008160809345
:1010D000A0008091210182608093210180912101F3
:1010E00081608093210180912001816080932001A3
:1010F00080917A00846080937A0080917A00826087
:1011000080937A0080917A00816080937A00809148
:101110007A00806880937A001092C100E0916C029E
:10112000F0916D0282E08083E0916802F0916902A3
:101130001082E0916A02F0916B028FEC8083109232
:101140007402E0917002F091710286E08083E09178
:101150006E02F0916F02808180618083E0916E0267
:10116000F0916F02808188608083E0916E02F0913F
:101170006F02808180688083E0916E02F0916F023F
:1011800080818F7D80838FE192E062DE1FB7F894CB
:1011900080914E02811123C0E7E6F1E08491EDEAEF
:1011A000F1E09491E82FF0E0EE0FFF1FE250FF4FC7
:1011B000A591B491EC91E92319F461E085E3BED8DF
:1011C00061E085E3E8D88CB580618CBD8CB5806426
:1011D0008CBD61E084E3DFD861E083E3DCD88091FB
:1011E0004E028F5F80934E021FBF61E08091070324
:1011F000D2D861E080910703A1D8809108038F3F86
:1012000009F48EC060E0C7D82091080330E0F901EE
:10121000E254FE4F8491F901E858FE4F0491F90120
:10122000EE5CFE4F149111116CC061E080910803D7
:10123000B2D860E08091080381D883E090E0019704
:10124000F1F761E08091080379D8FBD840E064E2CF
:1012500089EF92E0B4DA40E066E289EF92E0AFDA3B
:1012600046E268E489EF92E0AADA40E864E589EFB3
:1012700092E0A5DA49EA66E589EF92E0A0DA43E078
:1012800068E589EF92E09BDA48EE6AE589EF92E043
:1012900096DA40E46AE289EF92E091DA4DE362E2A5
:1012A00089EF92E08CDA68E289EF92E06FDA982FAA
:1012B0009370933031F0482F436068E289EF92E0F9
:1012C0007EDA6AE0C62ED12CE12CF12C89EF92E077
:1012D000D7DB89EF92E018DA4091FB02ECEFF2E005
:1012E00080E090E0DC0120E0421751F13191BA2F0B
:1012F000A92F982F8827830F911DA11DB11D2F5F46
:10130000F3CF81110E943701E12FF0E0EE0FFF1FB4
:10131000EC51FF4FA591B491EC910E2309F485CFC8
:101320004FE062E089EF92E04ADA13E08AD862E0A7
:1013300089EF92E02BDA84FF89CF1150B9F786CF7D
:1013400080934F0290935002A0935102B0935202A7
:1013500083E392E07DDD20914F0230915002409175
:1013600051025091520219A28E010F5D1F4FCA0106
:10137000B901A701960125D0605DF80162938F0144
:10138000211531054105510591F7309711F0CF0135
:1013900053DD8CE192E050DD80914F02909150023C
:1013A000A0915102B091520285359149A945B04EA4
:1013B00019F48EE392E04CDD86E492E049DD74D9C5
:1013C00085CFA1E21A2EAA1BBB1BFD010DC0AA1FCF
:1013D000BB1FEE1FFF1FA217B307E407F50720F09E
:1013E000A21BB30BE40BF50B661F771F881F991F19
:1013F0001A9469F760957095809590959B01AC0162
:10140000BD01CF010895EE0FFF1F881F8BBF07900E
:0A141000F691E02D1994F894FFCF37
:10141A0000000000E902540281023503B202900280
:10142A00A402000000009D05400584030D0A005730
:10143A00616974696E6720666F7220636172642ED7
:10144A002E2E0043617264205549443A20004F70A1
:0E145A00656E65642100537563657373210030
:00000001FF
